{
  "contractName": "CallerContract",
  "abi": [
    {
      "anonymous": false,
      "inputs": [
        {
          "indexed": true,
          "internalType": "address",
          "name": "previousOwner",
          "type": "address"
        },
        {
          "indexed": true,
          "internalType": "address",
          "name": "newOwner",
          "type": "address"
        }
      ],
      "name": "OwnershipTransferred",
      "type": "event"
    },
    {
      "anonymous": false,
      "inputs": [
        {
          "indexed": false,
          "internalType": "uint256",
          "name": "ethPrice",
          "type": "uint256"
        },
        {
          "indexed": false,
          "internalType": "uint256",
          "name": "id",
          "type": "uint256"
        }
      ],
      "name": "PriceUpdatedEvent",
      "type": "event"
    },
    {
      "anonymous": false,
      "inputs": [
        {
          "indexed": false,
          "internalType": "uint256",
          "name": "id",
          "type": "uint256"
        }
      ],
      "name": "ReceiveNewRequestIdEvent",
      "type": "event"
    },
    {
      "anonymous": false,
      "inputs": [
        {
          "indexed": false,
          "internalType": "address",
          "name": "oracleAddress",
          "type": "address"
        }
      ],
      "name": "newOracleAddressEvent",
      "type": "event"
    },
    {
      "inputs": [
        {
          "internalType": "uint256",
          "name": "",
          "type": "uint256"
        }
      ],
      "name": "myRequests",
      "outputs": [
        {
          "internalType": "bool",
          "name": "",
          "type": "bool"
        }
      ],
      "stateMutability": "view",
      "type": "function",
      "constant": true
    },
    {
      "inputs": [],
      "name": "owner",
      "outputs": [
        {
          "internalType": "address",
          "name": "",
          "type": "address"
        }
      ],
      "stateMutability": "view",
      "type": "function",
      "constant": true
    },
    {
      "inputs": [],
      "name": "renounceOwnership",
      "outputs": [],
      "stateMutability": "nonpayable",
      "type": "function"
    },
    {
      "inputs": [
        {
          "internalType": "address",
          "name": "newOwner",
          "type": "address"
        }
      ],
      "name": "transferOwnership",
      "outputs": [],
      "stateMutability": "nonpayable",
      "type": "function"
    },
    {
      "inputs": [
        {
          "internalType": "address",
          "name": "_oracleInstanceAddress",
          "type": "address"
        }
      ],
      "name": "setOracleInstanceAddress",
      "outputs": [],
      "stateMutability": "nonpayable",
      "type": "function"
    },
    {
      "inputs": [],
      "name": "updateEthPrice",
      "outputs": [],
      "stateMutability": "nonpayable",
      "type": "function"
    },
    {
      "inputs": [
        {
          "internalType": "uint256",
          "name": "_ethPrice",
          "type": "uint256"
        },
        {
          "internalType": "uint256",
          "name": "_id",
          "type": "uint256"
        }
      ],
      "name": "callback",
      "outputs": [],
      "stateMutability": "nonpayable",
      "type": "function"
    }
  ],
  "bytecode": "0x608060405234801561001057600080fd5b5061002d61002261003260201b60201c565b61003a60201b60201c565b6100fe565b600033905090565b60008060009054906101000a900473ffffffffffffffffffffffffffffffffffffffff169050816000806101000a81548173ffffffffffffffffffffffffffffffffffffffff021916908373ffffffffffffffffffffffffffffffffffffffff1602179055508173ffffffffffffffffffffffffffffffffffffffff168173ffffffffffffffffffffffffffffffffffffffff167f8be0079c531659141344cd1fd0a4f28419497f9722a3daafe3b4186f6b6457e060405160405180910390a35050565b610c358061010d6000396000f3fe608060405234801561001057600080fd5b506004361061007d5760003560e01c806397c49c771161005b57806397c49c77146100b4578063b5d73ba4146100e4578063e9e17a9e14610100578063f2fde38b1461011c5761007d565b806323c7e4a214610082578063715018a61461008c5780638da5cb5b14610096575b600080fd5b61008a610138565b005b610094610235565b005b61009e6102bd565b6040516100ab91906107e5565b60405180910390f35b6100ce60048036038101906100c9919061083b565b6102e6565b6040516100db9190610883565b60405180910390f35b6100fe60048036038101906100f9919061089e565b610306565b005b61011a6004803603810190610115919061090a565b610464565b005b6101366004803603810190610131919061090a565b6105e0565b005b6000600260009054906101000a900473ffffffffffffffffffffffffffffffffffffffff1673ffffffffffffffffffffffffffffffffffffffff166330c0b9ec6040518163ffffffff1660e01b81526004016020604051808303816000875af11580156101a9573d6000803e3d6000fd5b505050506040513d601f19601f820116820180604052508101906101cd919061094c565b905060016004600083815260200190815260200160002060006101000a81548160ff0219169083151502179055507f925bb4450ab39bfc46c6908ca6cf156d80b7fdf8e531746bcf67527088881a6d8160405161022a9190610988565b60405180910390a150565b61023d6106d8565b73ffffffffffffffffffffffffffffffffffffffff1661025b6102bd565b73ffffffffffffffffffffffffffffffffffffffff16146102b1576040517f08c379a00000000000000000000000000000000000000000000000000000000081526004016102a890610a00565b60405180910390fd5b6102bb60006106e0565b565b60008060009054906101000a900473ffffffffffffffffffffffffffffffffffffffff16905090565b60046020528060005260406000206000915054906101000a900460ff1681565b600360009054906101000a900473ffffffffffffffffffffffffffffffffffffffff1673ffffffffffffffffffffffffffffffffffffffff163373ffffffffffffffffffffffffffffffffffffffff1614610396576040517f08c379a000000000000000000000000000000000000000000000000000000000815260040161038d90610a92565b60405180910390fd5b600115156004600083815260200190815260200160002060009054906101000a900460ff161515146103fd576040517f08c379a00000000000000000000000000000000000000000000000000000000081526004016103f490610b24565b60405180910390fd5b816001819055506004600082815260200190815260200160002060006101000a81549060ff02191690557f6b69e4f2aedf7e65a79ecaf16e8869b2b99c87e341f2c51286bfd4a7fc3b99698282604051610458929190610b44565b60405180910390a15050565b61046c6106d8565b73ffffffffffffffffffffffffffffffffffffffff1661048a6102bd565b73ffffffffffffffffffffffffffffffffffffffff16146104e0576040517f08c379a00000000000000000000000000000000000000000000000000000000081526004016104d790610a00565b60405180910390fd5b80600360006101000a81548173ffffffffffffffffffffffffffffffffffffffff021916908373ffffffffffffffffffffffffffffffffffffffff160217905550600360009054906101000a900473ffffffffffffffffffffffffffffffffffffffff16600260006101000a81548173ffffffffffffffffffffffffffffffffffffffff021916908373ffffffffffffffffffffffffffffffffffffffff1602179055507f441e3b056b114797955165bd03bb8393fc1658a713f09225de4745a8d068bf7d600360009054906101000a900473ffffffffffffffffffffffffffffffffffffffff166040516105d591906107e5565b60405180910390a150565b6105e86106d8565b73ffffffffffffffffffffffffffffffffffffffff166106066102bd565b73ffffffffffffffffffffffffffffffffffffffff161461065c576040517f08c379a000000000000000000000000000000000000000000000000000000000815260040161065390610a00565b60405180910390fd5b600073ffffffffffffffffffffffffffffffffffffffff168173ffffffffffffffffffffffffffffffffffffffff1614156106cc576040517f08c379a00000000000000000000000000000000000000000000000000000000081526004016106c390610bdf565b60405180910390fd5b6106d5816106e0565b50565b600033905090565b60008060009054906101000a900473ffffffffffffffffffffffffffffffffffffffff169050816000806101000a81548173ffffffffffffffffffffffffffffffffffffffff021916908373ffffffffffffffffffffffffffffffffffffffff1602179055508173ffffffffffffffffffffffffffffffffffffffff168173ffffffffffffffffffffffffffffffffffffffff167f8be0079c531659141344cd1fd0a4f28419497f9722a3daafe3b4186f6b6457e060405160405180910390a35050565b600073ffffffffffffffffffffffffffffffffffffffff82169050919050565b60006107cf826107a4565b9050919050565b6107df816107c4565b82525050565b60006020820190506107fa60008301846107d6565b92915050565b600080fd5b6000819050919050565b61081881610805565b811461082357600080fd5b50565b6000813590506108358161080f565b92915050565b60006020828403121561085157610850610800565b5b600061085f84828501610826565b91505092915050565b60008115159050919050565b61087d81610868565b82525050565b60006020820190506108986000830184610874565b92915050565b600080604083850312156108b5576108b4610800565b5b60006108c385828601610826565b92505060206108d485828601610826565b9150509250929050565b6108e7816107c4565b81146108f257600080fd5b50565b600081359050610904816108de565b92915050565b6000602082840312156109205761091f610800565b5b600061092e848285016108f5565b91505092915050565b6000815190506109468161080f565b92915050565b60006020828403121561096257610961610800565b5b600061097084828501610937565b91505092915050565b61098281610805565b82525050565b600060208201905061099d6000830184610979565b92915050565b600082825260208201905092915050565b7f4f776e61626c653a2063616c6c6572206973206e6f7420746865206f776e6572600082015250565b60006109ea6020836109a3565b91506109f5826109b4565b602082019050919050565b60006020820190508181036000830152610a19816109dd565b9050919050565b7f596f7520617265206e6f7420617574686f72697a656420746f2063616c6c207460008201527f6869732066756e6374696f6e2e00000000000000000000000000000000000000602082015250565b6000610a7c602d836109a3565b9150610a8782610a20565b604082019050919050565b60006020820190508181036000830152610aab81610a6f565b9050919050565b7f546869732072657175657374206973206e6f7420696e206d792070656e64696e60008201527f67206c6973742e00000000000000000000000000000000000000000000000000602082015250565b6000610b0e6027836109a3565b9150610b1982610ab2565b604082019050919050565b60006020820190508181036000830152610b3d81610b01565b9050919050565b6000604082019050610b596000830185610979565b610b666020830184610979565b9392505050565b7f4f776e61626c653a206e6577206f776e657220697320746865207a65726f206160008201527f6464726573730000000000000000000000000000000000000000000000000000602082015250565b6000610bc96026836109a3565b9150610bd482610b6d565b604082019050919050565b60006020820190508181036000830152610bf881610bbc565b905091905056fea264697066735822122053107979b383b024a3635622fb5e4504aa4a0fadc210e78fc6c8b548c684c45764736f6c634300080a0033",
  "immutableReferences": {},
  "source": "pragma solidity 0.8.10;\r\n\r\n//1. Import from the \"./EthPriceOracleInterface.sol\" file\r\nimport \"./EthPriceOracleInterface.sol\";\r\nimport \"@openzeppelin/contracts/access/Ownable.sol\";\r\n\r\ncontract CallerContract is Ownable {\r\n    uint256 private ethPrice;\r\n    EthPriceOracleInterface private oracleInstance;\r\n    address private oracleAddress;\r\n    event newOracleAddressEvent(address oracleAddress);\r\n\r\n    mapping(uint256 => bool) public myRequests;\r\n    event ReceiveNewRequestIdEvent(uint256 id);\r\n    event PriceUpdatedEvent(uint256 ethPrice, uint256 id);\r\n\r\n    function setOracleInstanceAddress(address _oracleInstanceAddress)\r\n        public\r\n        onlyOwner\r\n    {\r\n        oracleAddress = _oracleInstanceAddress;\r\n        //3. Instantiate `EthPriceOracleInterface`\r\n        oracleInstance = EthPriceOracleInterface(oracleAddress);\r\n        emit newOracleAddressEvent(oracleAddress);\r\n    }\r\n\r\n    // Define the `updateEthPrice` function\r\n    function updateEthPrice() public {\r\n        uint256 id = oracleInstance.getLatestEthPrice();\r\n        myRequests[id] = true;\r\n        emit ReceiveNewRequestIdEvent(id);\r\n    }\r\n\r\n    function callback(uint256 _ethPrice, uint256 _id) public onlyOracle {\r\n        // 3. Continue here\r\n        require(\r\n            myRequests[_id] == true,\r\n            \"This request is not in my pending list.\"\r\n        );\r\n        ethPrice = _ethPrice;\r\n        delete myRequests[_id];\r\n\r\n        emit PriceUpdatedEvent(_ethPrice, _id);\r\n    }\r\n\r\n    modifier onlyOracle() {\r\n      // Start here\r\n      require(msg.sender == oracleAddress, \"You are not authorized to call this function.\");\r\n      _;\r\n    }\r\n\r\n}\r\n",
  "sourcePath": "D:\\1.Projects\\6.Solidity\\eth-price-oracle\\caller\\contracts\\CallerContract.sol",
  "compiler": {
    "name": "solc",
    "version": "0.8.10+commit.fc410830.Emscripten.clang"
  },
  "schemaVersion": "3.4.3",
  "updatedAt": "2021-11-25T10:42:43.198Z",
  "networkType": "ethereum",
  "devdoc": {
    "kind": "dev",
    "methods": {
      "owner()": {
        "details": "Returns the address of the current owner."
      },
      "renounceOwnership()": {
        "details": "Leaves the contract without owner. It will not be possible to call `onlyOwner` functions anymore. Can only be called by the current owner. NOTE: Renouncing ownership will leave the contract without an owner, thereby removing any functionality that is only available to the owner."
      },
      "transferOwnership(address)": {
        "details": "Transfers ownership of the contract to a new account (`newOwner`). Can only be called by the current owner."
      }
    },
    "version": 1
  },
  "userdoc": {
    "kind": "user",
    "methods": {},
    "version": 1
  }
}